:100000000C94E3180C9414190C9414190C941419EE
:100010000C9414190C9414190C9414190C941419AC
:100020000C9414190C9414190C9414190C9414199C
:100030000C9414190C94CF530C9414190C94141997
:100040000C9414190C94B3950C9414190C94141961
:100050000C9414190C9414190C945EA80C94B455B7
:100060000C9414190C94C83D0C9414190C94141984
:100070000C9414190C9414190C9414190C9414194C
:100080000C9414190C9414190C9414190C9414193C
:100090000C9414190C9414190C9414190C9414192C
:1000A0000C9414190C9414190C9414190C9414191C
:1000B0000C9414190C9414190C9414190C9414190C
:1000C0000C9414190C9414190C9414190C941419FC
:1000D0000C9414190C9414190C9414190C941419EC
:1000E0000C9414198E529152805284528A52C852E2
:1000F000955299529F52A352A752AD52B152B55246
:10010000C852BB52BF52C352D054D554DA54E454EF
:10011000EE546755F8540055085512551C55265590
:1001200035553F556755495553555D5512DBF8DA3E
:10013000FBDAFEDA01DB0DDB04DB1EDB07DB0ADBAF
:100140004E414E494E495459494E46CDCCCC3D0ABC
:10015000D7233C17B7D13877CC2B329595E6241F9F
:10016000B14F0A000020410000C84200401C462058
:10017000BCBE4CCA1B0E5AAEC59D7400407A10F32B
:100180005A00A0724E18090010A5D4E80000E876C5
:1001900048170000E40B54020000CA9A3B0000001C
:1001A000E1F505000080969800000040420F000035
:1001B00000A08601000000102700000000E80300F6
:1001C0000000006400000000000A000000000001C0
:1001D00000000000002C76D888DC674F0823DFC1C0
:1001E000DFAE59E1B1B796E5E3E453C63AE651997B
:1001F0007696E8E6C28426EB898C9B62ED407C6FA4
:10020000FCEFBC9C9F40F2BAA56FA5F490055A2A5A
:10021000F75C936B6CF9676DC11BFCE0E40D47FE66
:10022000F520E6B500D0ED902E030094357705005B
:1002300080841E080000204E0A000000C80C3333E2
:1002400033330F986E12831141EF8D2114893BE6F1
:100250005516CFFEE6DB18D1844B381BF77C1D907A
:100260001DA4BBE424203284725E228100C9F124E3
:10027000ECA1E53D27434F4D4D554E49434154496F
:100280004F4E0044525952554E004552524F525310
:1002900000494E464F004543484F00536C6565701A
:1002A0002E2E2E00206F6620004D424C2047323902
:1002B00020706F696E74200059206F7574206F660E
:1002C0002072616E67652028312D33292E0A00586F
:1002D000206F7574206F662072616E67652028310B
:1002E0002D33292E0A004D6573682070726F626984
:1002F0006E6720646F6E652E0A00537461727420FD
:100300006D6573682070726F62696E6720776974BB
:100310006820224732392053312220666972737473
:100320002E0A004732380A473239205332005374BC
:100330006174653A20004D65736820626564206CC5
:100340006576656C696E6720686173206E6F2064E6
:100350006174612E0A0053206F7574206F662072DD
:10036000616E67652028302D35292E0A004D657392
:100370006820706F696E742063616E6E6F742062A6
:1003800065207265736F6C7665640A00436C6963FF
:100390006B20746F20726573756D652E2E2E00456F
:1003A0006E642066696C65206C6973740A0042652E
:1003B00067696E2066696C65206C6973740A0096C3
:1003C0000291028A02830275026F6666004445420A
:1003D00055473A004B494C4C45442E20006F6B006A
:1003E00020573A004520436F6F6C696E672E2E2EA2
:1003F00000452048656174696E672E2E2E002057D7
:100400003A0042656420636F6F6C696E672E2E2E12
:10041000004265642068656174696E672E2E2E0047
:1004200043522D31305335204F66662E00544845D7
:10043000524D414C5F50524F54454354494F4E002A
:100440004155544F5245504F52545F53445F53549B
:100450004154555300454D455247454E43595F5011
:10046000415253455200434153455F4C494748541C
:100470005F4252494748544E45535300544F4747F3
:100480004C455F4C494748545300534F46545741DD
:1004900052455F504F574552004255494C445F50BA
:1004A000455243454E54004C4556454C494E475FD6
:1004B00044415441005A5F50524F42450041555407
:1004C0004F4C4556454C005052494E545F4A4F429E
:1004D0000050524F4752455353004155544F5245D7
:1004E000504F52545F54454D5000564F4C554D455A
:1004F0005452494300454550524F4D0053455249CF
:10050000414C5F584F4E5F584F4646004649524D4A
:10051000574152455F4E414D453A4D61726C696E8F
:1005200020312E312E3920284769746875622920C0
:10053000534F555243455F434F44455F55524C3AE4
:1005400068747470733A2F2F6769746875622E63CC
:100550006F6D2F4D61726C696E4669726D77617255
:10056000652F4D61726C696E2050524F544F434F4E
:100570004C5F56455253494F4E3A312E30204D4133
:100580004348494E455F545950453A43522D313006
:1005900053352045585452554445525F434F554EAC
:1005A000543A3120555549443A63656465326132A5
:1005B000662D343161322D343734382D3962313281
:1005C0002D6335356336326633363766660A002F5B
:1005D0002F200066696C616D656E743A20007A5F49
:1005E0006D696E3A2000795F6D696E3A2000785F20
:1005F0006D696E3A20005265706F7274696E672083
:10060000656E6473746F70207374617475730A001F
:100610004D31343520533C696E6465783E206F75EA
:1006200074206F662072616E67652028302D312935
:100630000A00205400205200416363656C657261BA
:1006400074696F6E3A2050005741524E494E47210F
:10065000204C6F77205A204A65726B206D6179209B
:100660006C65616420746F20756E77616E7465646B
:10067000207061757365732E0A004F66667365742A
:1006800073206170706C696564004572723A205421
:100690006F6F206661722100546F6F206661722057
:1006A00066726F6D207265666572656E6365207037
:1006B0006F696E740A00205A0020590058002020EB
:1006C0004D61783A2000205A00205900580020201F
:1006D0004D696E3A20004F6E20004F666600536FE2
:1006E000667420656E6473746F70733A20002046E0
:1006F0006C6F773A2000000136372603FFFFFF3585
:100700003C3D380EFFFFFF312E303E12FFFFFFFF52
:1007100028FF0C0809FFFFFF1A1C18FFFF2A0844D6
:100720000AFF4320643A0020693A0020703A0049E9
:100730006E76616C69642065787472756465720A9E
:100740000043290A0061626C656420286D696E208F
:1007500074656D702000436F6C64206578747275E9
:1007600064657320617265200023646566696E6547
:100770002044454641554C545F4B6420002364653A
:1007800066696E652044454641554C545F4B69206F
:100790000023646566696E652044454641554C54A6
:1007A0005F4B702000504944204175746F74756E22
:1007B000652066696E6973686564212050757420D0
:1007C000746865206C617374204B702C204B692019
:1007D000616E64204B6420636F6E7374616E74731A
:1007E0002066726F6D2062656C6F7720696E746F22
:1007F00020436F6E66696775726174696F6E2E68EB
:100800000A00504944204175746F74756E65206606
:1008100061696C6564212074696D656F75740A0087
:10082000453120544845524D414C2052554E415778
:10083000415900546865726D616C2052756E617724
:1008400061790045312048656174696E6720666191
:10085000696C65640048656174696E6720666169EA
:100860006C656400504944204175746F74756E6501
:10087000206661696C6564212054656D70657261E4
:100880007475726520746F6F20686967680A00204C
:100890004B643A2000204B693A2000204B703A20EC
:1008A000000A20436C617373696320504944200A35
:1008B000002054753A2000204B753A2000206D61CD
:1008C000783A2000206D696E3A200020643A2000BA
:1008D00020626961733A2000504944204175746F69
:1008E00074756E65206661696C656421204261647F
:1008F000206578747275646572206E756D626572BC
:100900000A00504944204175746F74756E652073F8
:10091000746172740A004E6F2063617365206C69A4
:100920006768740A004D65736820706F696E742083
:1009300063616E6E6F74206265207265736F6C7692
:1009400065640A004D34323120696E636F727265DE
:10095000637420706172616D657465722075736176
:1009600067650A00454550524F4D204F4B0A0041E4
:1009700063746976652045787472756465723A208F
:1009800000496E76616C696420657874727564657F
:10099000720A00656E7175657565696E6720220063
:1009A0004D33310053442072656164206572726F6B
:1009B000720A00446F6E65207072696E74696E67AA
:1009C0002066696C650A004E6F20436865636B732F
:1009D000756D2077697468206C696E65206E756D21
:1009E0006265722C204C617374204C696E653A20EC
:1009F000004B494C4C45442E200053544F50504519
:100A0000442E20005072696E7465722073746F708A
:100A10007065642064756520746F206572726F72F2
:100A2000732E2046697820746865206572726F7233
:100A300020616E6420757365204D39393920746FDB
:100A400020726573746172742E202854656D706510
:100A50007261747572652069732072657365742E96
:100A60002053657420697420616674657220726514
:100A70007374617274696E67290A004E6F2043684F
:100A800065636B73756D2077697468206C696E653A
:100A9000206E756D6265722C204C617374204C69F8
:100AA0006E653A2000636865636B73756D206D69D0
:100AB000736D617463682C204C617374204C696E93
:100AC000653A20004C696E65204E756D6265722036
:100AD0006973206E6F74204C617374204C696E656D
:100AE000204E756D6265722B312C204C6173742021
:100AF0004C696E653A20004D3131300020496E76E8
:100B0000616C696420657874727564657220000098
:100B100000000000000000000000000000FA430098
:100B200000FA430000FA434B494C4C45442E200048
:100B3000202D20496E76616C696420657874727529
:100B4000646572206E756D62657220210A001FFF58
:100B5000FFFFFFFFFF600000000001FF40000000FA
:100B60000000FF8000000000007F83CF00000C30F9
:100B70003F87FF80000C301F867980000C000F8CAF
:100B800030C7838C30E78C30CFC7CC31F38C30DC6E
:100B9000ECEC33B98C30D86C6C33198C30D06C0CD5
:100BA00033198C30D86C0C33198C30DC6C0E3B193B
:100BB0008C30CF7C079F198C30C77C038F19400085
:100BC0000000000002600000000000061FFFFFFFA1
:100BD000FFFFF8494E56414C4944204441544100DE
:100BE0004D32342053256C642054256C64004D3202
:100BF00033202573004739322E30205A2573204583
:100C00002573004D34323020532569205A25730056
:100C100047323820523020582059004731205A326C
:100C2000004739322E30205A30004D3432302053B4
:100C300030205A30002020506C616E6E6572427513
:100C40006666657242797465733A20002046726563
:100C500065204D656D6F72793A2000436F6D706944
:100C60006C65643A20417567202036203230313877
:100C70000A00207C20417574686F723A20286E6FDC
:100C80006E652C2064656661756C7420636F6E669A
:100C90006967290A00323031382D30372D33310061
:100CA000204C61737420557064617465643A20004F
:100CB000312E312E390A004D61726C696E0020535D
:100CC0006F6674776172652052657365740A0020DF
:100CD0005761746368646F672052657365740A00B6
:100CE0002042726F776E206F757420526573657441
:100CF0000A002045787465726E616C2052657365D8
:100D0000740A00506F77657255700A0073746172CF
:100D1000740A006175746F25692E67006572726FC1
:100D2000722077726974696E6720746F2066696CCF
:100D3000650A00456E6473746F7073202563202507
:100D40006320256320256300205A3A0020593A0089
:100D500020583A00656E6473746F7073206869740C
:100D60003A2000446F6E6520736176696E67206675
:100D7000696C652E0A004D3239004572726F72201F
:100D800077726974696E6720746F20454550524FC1
:100D90004D210A00454550524F4D206461746173E6
:100DA000697A65206572726F722E0A00290A002026
:100DB00062797465733B20637263200053657474B9
:100DC000696E67732053746F7265642028005265E2
:100DD00073746F7265206661696C73616665004C3F
:100DE0006F61642073657474696E677300496E691E
:100DF0007469616C697A6520454550524F4D0053C6
:100E0000746F72652073657474696E6773004669E8
:100E10006C616D656E74004D6F74696F6E00546522
:100E20006D7065726174757265004D61696E005018
:100E30007265686561742041425320636F6E66007D
:100E40005072656865617420504C4120636F6E6616
:100E5000005049442D44005049442D440050494419
:100E60002D49005049442D49005049442D5000500F
:100E700049442D500020082046616374002008205A
:100E800046616374002008204D6178002008204DE1
:100E90006178002008204D6178002008204D696E9F
:100EA000002008204D696E002008204D696E004F1B
:100EB0006666004F6E20004175746F74656D70003A
:100EC00046616E2073706565640046616E207370C4
:100ED0006565640042656400426564004E6F7A7A1D
:100EE0006C65004E6F7A7A6C6500436F6E74726F3A
:100EF0006C0053746F72652073657474696E6773E8
:100F00000042656400426564004E6F7A7A6C650049
:100F10004E6F7A7A6C650046616E20737065656409
:100F20000046616E2073706565640054656D706580
:100F3000726174757265005654726176206D696EC7
:100F4000005654726176206D696E00565472617657
:100F5000206D696E00566D696E00566D696E0056A3
:100F60006D696E00566D6178204500566D61782080
:100F70004500566D6178204500566D6178205A0015
:100F8000566D6178205A00566D6178205A00566D72
:100F90006178205900566D6178205900566D61784E
:100FA000205900566D6178205800566D61782058A0
:100FB00000566D61782058004D6F74696F6E0000A7
:100FC000002100240027002A002D003000330001FA
:100FD000010000040107010A010000220025002889
:100FE000002B002E00310034000201000005010832
:100FF000010B01000020002300260029002C002FF7
:101000000032000001000003010601090105050589
:1010100005070508080808020202020A0A0808046F
:10102000040404010101010101010103030303039D
:10103000030303040707070C0C0C0C0C0C0C0C022C
:1010400002020206060606060606060B0B0B0B0B33
:101050000B0B0B010210202008081020401020402C
:10106000800201020108040201010204081020406C
:10107000808040201008040201800402018040208A
:1010800010080402010804020101020408102040B3
:1010900080010204081020408000000A0B02090CA5
:1010A0000D0E08070304010000000000000000000E
:1010B0000000000000000000000000000000000030
:1010C00000000000001211100000000000000000ED
:1010D000000000000000000000000000000000020E
:1010E000416D6178204500416D6178204500416D7A
:1010F0006178205A00416D6178205A00416D617815
:10110000205900416D6178205900416D6178205867
:1011100000416D6178205800412D74726176656CD4
:1011200000412D74726176656C00412D7265747298
:1011300061637400412D7265747261637400416370
:1011400063656C00416363656C004D6F74696F6E1D
:101150000056652D6A65726B0056652D6A65726B67
:101160000056652D6A65726B00567A2D6A65726B42
:1011700000567A2D6A65726B0056792D6A65726B1E
:101180000056792D6A65726B0056792D6A65726B0F
:101190000056782D6A65726B0056782D6A65726B01
:1011A0000056782D6A65726B004D6F74696F6E0022
:1011B0004573746570732F6D6D004573746570733E
:1011C0002F6D6D005A73746570732F6D6D005A73B7
:1011D000746570732F6D6D005973746570732F6D26
:1011E0006D005973746570732F6D6D00587374655D
:1011F00070732F6D6D005873746570732F6D6D0073
:101200004D6F74696F6E0053746570732F6D6D0050
:101210004A65726B00416363656C65726174696FE6
:101220006E0056656C6F6369747900436F6E7472FB
:101230006F6C004C6F6164206D6D004C6F616420B9
:101240006D6D004C6F6164206D6D00556E6C6F614B
:1012500064206D6D00556E6C6F6164206D6D00557E
:101260006E6C6F6164206D6D0046696C2E20446960
:10127000612E0046696C2E204469612E004F66661F
:10128000004F6E20004520696E206D6D3300436F66
:101290006E74726F6C004D313133205300205A3A16
:1012A0000020593A0020436F756E7420583A002090
:1012B000453A00205A3A0020593A00583A003A007C
:1012C0004361703A004F66660A00466164652048D3
:1012D00065696768742000426564204C6576656CBA
:1012E000696E6720004661696C656420746F2065D3
:1012F0006E61626C6520426564204C6576656C6940
:101300006E670A004D65736820426564204C6576FF
:10131000656C20646174613A0A004D3630303A20C1
:10132000546F6F20636F6C6400486F74656E642047
:10133000746F6F20636F6C640A00496E736572741A
:101340002066696C616D656E7420616E64207072D8
:1013500065737320627574746F6E0A0050726573E2
:101360007320627574746F6E20746F206865617489
:10137000206E6F7A7A6C650A00496E73657274200C
:1013800066696C616D656E7420616E642070726553
:10139000737320627574746F6E20286F72204D31E4
:1013A0003038290A00496E736572742066696C6171
:1013B0006D656E7420616E64207072657373206257
:1013C0007574746F6E20286F72204D313038290A81
:1013D0000020746F6F206C6F6E6720657874727573
:1013E00073696F6E2070726576656E7465640A004D
:1013F00020636F6C6420657874727573696F6E20FA
:1014000070726576656E7465640A00506C65617310
:1014100065207265736574005052494E54455220E0
:1014200048414C544544005072696E74657220689E
:10143000616C7465642E206B696C6C282920636173
:101440006C6C6564210A00000000000000000000D0
:1014500000000000004842000048420000804000B8
:101460000000005761726E696E673A20486F6D69BF
:101470006E672042756D702044697669736F7220C3
:101480003C20310A000202040000A0400000A040FD
:10149000000000400000FA430000FA430000FA4355
:1014A000FFFFFF7C3C3E5E2B3D3F2F5B5D3B2C2ACC
:1014B000225C0025753A2530327500253032753AA8
:1014C000253032750025756420253032753A253077
:1014D000327500202020202020005A0059002020B2
:1014E000202000580009200000000000000000003B
:1014F000000000003FFFF0000000000000000000BE
:101500000000003800700000000000000000000033
:10151000000030FC3000000000000000000000006F
:101520000020FC100000000000000000000000008F
:1015300020781000000000000000000000000020E3
:1015400030100000000000000000000000002C002F
:10155000D03FC0000000000000002082002E31D0EB
:101560007FE0000000000000001041002F7BD07FD2
:10157000E0000000000000001041002F7BD07FE061
:10158000000000000000002082002E31D03FC0008B
:101590000000000000004104002C00D03FC000000B
:1015A00000000000008208002030107FE0000000F2
:1015B000000000008208002078107FE0000000009A
:1015C00000000041040020FC107FE000000000004B
:1015D000000020820030FC301F800000000000006E
:1015E000000000003800700F000000000000000044
:1015F000FFFFC03FFFF0060000000000000000FFFA
:10160000FFC000000000000000000000000000001B
:10161000003FFFF00000000000000000000000009C
:1016200038007000000000000000000000000031E1
:10163000863000000000000000000000000023874A
:10164000100000000000000000000000002787904C
:101650000000000000000000000000002F87D00004
:1016600000000000000000000000002F03D03FC079
:10167000000000000000002082002030107FE00009
:101680000000000000001041002078107FE0000002
:1016900000000000001041002078107FE0000000F2
:1016A000000000002082002030103FC00000000039
:1016B0000000004104002F03D03FC00000000000E4
:1016C00000008208002F87D07FE0000000000000AB
:1016D000008208002787907FE000000000000000E3
:1016E0004104002387107FE000000000000000207C
:1016F00082003186301F80000000000000000000E2
:10170000003800700F0000000000000000FFFFC064
:101710003FFFF0060000000000000000FFFFC000D7
:10172000000000060900FE0000000000010900089A
:10173000FE000005080806000040F0C88888987878
:1017400010050808060000C0F88888888888F80511
:1017500005050600012030F83020050808060000C5
:101760002070F820202020E00509090600FF2070E5
:10177000A8A8B8888870200509090600FFE080C085
:10178000B0A8283028280509090600FFF8A888888D
:10179000888888A8F8050A0A0600FE205050505094
:1017A00088A8A8887003030306000340A040436193
:1017B0006E6E6F7420656E746572207375626469F5
:1017C000723A2000022E2E0001526566726573681F
:1017D000004D61696E004D36303020423020542576
:1017E00064004D37303120542564004D37303220AD
:1017F0003B2564004D373032205425640043686136
:101800006E67652066696C616D656E740050726507
:101810006865617420414253005072656865617467
:1018200020504C41004368616E67652066696C61B9
:101830006D656E74005052494E54205041555345C9
:101840004400554E4C4F41442046494C414D454E75
:1018500054004C4F41442046494C414D454E5400A4
:101860005075726765206D6F726500436F6E7469A5
:101870006E756500524553554D45204F5054494FA4
:101880004E533A0020204E6F7A7A6C653A200063FE
:1018900068616E6765006F66207468652066696CB4
:1018A000616D656E74005761697420666F72207394
:1018B000746172740020204E6F7A7A6C653A200051
:1018C000200066696C616D656E7420756E6C6F6169
:1018D00064005761697420666F720020204E6F7A31
:1018E0007A6C653A20002000506C65617365207742
:1018F0006169742E2E2E0048656174696E67206ED2
:101900006F7A7A6C650020204E6F7A7A6C653A2087
:1019100000200068656174206E6F7A7A6C652E0015
:10192000507265737320627574746F6E20746F00EB
:1019300020204E6F7A7A6C653A2000746F20636FB6
:101940006E74696E75652E2E2E00616E6420707245
:1019500065737320627574746F6E00496E7365727F
:10196000742066696C616D656E74004261636B0022
:101970004E65787420636F726E6572004C65766593
:101980006C696E6720446F6E6521004D6F7665202F
:101990005A00473239205332004E65787420506F18
:1019A000696E74002569202F202575004732392083
:1019B00053310047323920533200436C69636B2046
:1019C000746F20426567696E00486F6D696E6720AD
:1019D00058595A004732380053746F726520736546
:1019E0007474696E6773004C6F61642073657474FE
:1019F000696E6773004C6576656C20636F726E6507
:101A0000727300426564205A00426564205A0046A1
:101A10006164652048656967687400466164652093
:101A2000486569676874004F6666004F6E20004223
:101A30006564204C6576656C696E67004C657665FB
:101A40006C206265640050726570617265004D348F
:101A50003238005072656865617420504C41004313
:101A60006F6F6C646F776E004368616E67652066A8
:101A7000696C616D656E74004368616E67652066B0
:101A8000696C616D656E74004D36303020423000F7
:101A900044697361626C65207374657070657273FC
:101AA000004D38340053657420686F6D65206F6693
:101AB0006673657473005072656865617420414295
:101AC0005300426564204C6576656C696E67004121
:101AD00075746F20686F6D6500473238004D6F7602
:101AE000652061786973004D61696E0024F4D4301B
:101AF00050C38E20C2A24017828B7011127A910DB2
:101B0000816CD90AA861E108C7586607615143068C
:101B10001E4B5D05C145A7041A411104093D9803F8
:101B2000713931034036DB0265339102D4305402FF
:101B3000802E1D02632CEE01752AC501B028A0017C
:101B4000102781018F2564012B244B01E0223401F1
:101B5000AC211F018D200D01801FFC00841EED00B3
:101B6000971DDF00B81CD200E61BC600201BBC007E
:101B7000641AB200B219A8000A19A0006A189900E4
:101B8000D117910040178B00B516840031167E00E6
:101B9000B31579003A157300C7146F0058146A0022
:101BA000EE1366008813630025135E00C7125B0006
:101BB0006C12570015125400C111510070114F00E2
:101BC00021114B00D61049008D10470046104400EB
:101BD00002104200C00F4000800F3E00420F3C0048
:101BE000060F3B00CB0E3800930E37005C0E35001D
:101BF000270E3400F30D3200C10D3100900D30007E
:101C0000600D2E00320D2D00050D2C00D90C2B007F
:101C1000AE0C2900850C29005C0C2700350C270030
:101C20000E0C2600E80B2400C40B2400A00B23009C
:101C30007D0B23005A0B2100390B2100180B2000CB
:101C4000F80A1F00D90A1E00BB0A1E009D0A1D00CB
:101C5000800A1D00630A1C00470A1B002C0A1B0097
:101C6000110A1A00F7091A00DD091900C409190040
:101C7000AB091900920917007B09180063091700C6
:101C80004C09160036091600200916000A0915002D
:101C9000F5081500E0081400CC081400B80814007A
:101CA000A4081400900813007D0812006B081300AC
:101CB00058081200460812003408110023081100C9
:101CC0001208110001081100F0071000E0071000D1
:101CD000D0071000C0071000B0070F00A1071000C8
:101CE00091070E0083070F0074070F0065070E00B1
:101CF00057070E0049070E003B070D002E070E0088
:101D000020070D0013070D0006070D00F9060C0053
:101D1000ED060D00E0060C00D4060C00C8060C0011
:101D2000BC060C00B0060C00A4060B0099060C00C3
:101D30008D060B0082060B0077060B006C060B006D
:101D400061060A0057060B004C060A0042060A000C
:101D500038060A002E060A0024060A001A060A009F
:101D60001006090007060A00FD050900F405090030
:101D7000EB050900E2050900D9050900D0050900B5
:101D8000C7050900BE050900B5050800AD05080036
:101D9000A50509009C050800940508008C050800AD
:101DA000840508007C050800740508006C05070020
:101DB000650508005D050700560508004E0507008B
:101DC00047050700400508003805070031050700F2
:101DD0002A050700230507001C0506001605070055
:101DE0000F0507000805060002050700FB040600B2
:101DF000F5040700EE040600E8040600E20407000C
:101E0000DB040600D5040600CF040600C904060062
:101E1000C3040600BD040600B7040600B1040500B3
:101E2000AC040600A6040600A00405009B040600FE
:101E300095040500900406008A0405008504050049
:101E4000800406007A04050075040500700405008E
:101E50006B04050066040500610405005C040500D0
:101E600057040500520405004D0405004804050010
:101E7000430405003E0404003A040500350405004F
:101E8000300404002C04050027040400230405008A
:101E90001E0404001A0404001604050011040400C2
:101EA0000D040400090405000404040000040400F7
:101EB000FC030400F8030400F4030400F00304002E
:101EC000EC030400E8030400E4030400E00304005E
:101ED000DC030400D8030400D4030400D00304008E
:101EE000CC030400C8030300C503030024F404D991
:101EF000201BC40C5C0E9804C4095F0265077101C5
:101F0000F405F900FB04B30048048700C10369002D
:101F10005803550003034500BE023A008402310015
:101F200053022A002902250004022000E4011C00BB
:101F3000C8011900AF0117009801140084011300B3
:101F4000710110006101100051010E0043010D00EC
:101F500036010B002B010B0020010B0015010900BD
:101F60000C01090003010800FB000800F300080051
:101F7000EB000700E4000600DE000600D8000600C3
:101F8000D2000600CC000500C7000500C200050015
:101F9000BD000400B9000400B5000400B100040055
:101FA000AD000400A9000400A5000300A200030086
:101FB0009F0004009B0003009800030095000200AE
:101FC00093000300900003008D0002008B000300CB
:101FD00088000200860002008400030081000200E5
:101FE0007F0002007D0002007B00020079000200F9
:101FF0007700010076000200740002007200010008
:10200000710002006F0002006D0001006C00020010
:102010006A0001006900020067000100660001001B
:10202000650001006400020062000100610001001F
:10203000600001005F0002005D0001005C00010023
:102040005B0001005A000100590001005800010026
:102050005700010056000100550001005400010026
:102060005300000053000100520001005100010024
:10207000500001004F0001004E0000004E00010022
:102080004D0001004C0001004B0000004B0001001E
:102090004A0001004900010048000000480001001A
:1020A0004700010046000000460001004500000016
:1020B000450001004400010043000000430001000E
:1020C0004200000042000100410000004100010008
:1020D000400001003F0000003F0001003E00000002
:1020E0003E0001003D0000003D0001003C000000FA
:1020F0003C0000003C0001003B0000003B000100F0
:102100003A0000003A0001003900000039000100E7
:1021100038000000380000003800010037000000DF
:1021200037000100360000003600000036000100D4
:1021300035000000350000003500010034000000CB
:1021400034000000340001003300000033000000C0
:1021500033000100320000003200000032000100B4
:1021600031000000310000003100010030000000AB
:1021700030000000300001002F0000002F000000A0
:102180002F0000002F0001002E0000002E00000094
:102190002E0001002D0000002D0000002D00000089
:1021A0002D0001002C0000002C0000002C0000007D
:1021B0002C0001002B0000002B0000002B00000071
:1021C0002B0001002A0000002A0000002A00000065
:1021D0002A00010029000000290000002900000059
:1021E000290000002900010028000000280000004C
:1021F000280000002800000028000100270000003F
:102200002700000027000000270000002700010031
:102210002600000026000000260000002600000026
:102220002600010025000000250000002500000018
:10223000250000002500000025000100240000000A
:1022400024000000240000002400000024000100FD
:1022500023000000230000002300000023000000F2
:1022600023000000230000002300010022000000E2
:1022700022000000220000002200000022000000D6
:1022800022000100210000002100000021000000C8
:1022900021000000210000002100000021000100B9
:1022A00020000000200000002000000020000000AE
:1022B000200000002000000020000000200001009D
:1022C0001F0000001F0000001F0000001F00000092
:1022D0001F0000001F0000001F0001001E00000082
:1022E0001E0000001E0000001E0000000437000059
:1022F0001E290000511B00005810000010090000AA
:10230000CC040000780200004101000052657365B2
:102310006E643A20006F6B0020746F6F206C6F6EDC
:102320006720657874727573696F6E207072657658
:10233000656E7465640A0020636F6C642065787450
:10234000727573696F6E2070726576656E74656400
:102350000A00627573793A2070617573656420664E
:102360006F7220696E7075740A00627573793A2015
:1023700070617573656420666F7220757365720A8B
:1023800000627573793A2070726F63657373696E5A
:10239000670A004B494C4C45442E20004B494C4C9D
:1023A00020636175736564206279204B494C4C2031
:1023B000627574746F6E2F70696E0A004B494C4CD5
:1023C00045442E20004B494C4C2063617573656475
:1023D00020627920746F6F206D75636820696E616B
:1023E00063746976652074696D65202D206375724C
:1023F00072656E7420636F6D6D616E643A20004D7E
:10240000363030006265640A002C2073797374657D
:102410006D2073746F707065642120486561746508
:10242000725F49443A2000426564206865617469BE
:102430006E67206661696C65640048656174696EE9
:1024400067206661696C6564004531204865617488
:10245000696E67206661696C6564004865617469CE
:102460006E67206661696C6564004531205448459B
:10247000524D414C2052554E41574159004245441E
:1024800020544845524D414C2052554E41574159D8
:1024900000546865726D616C2052756E6177617968
:1024A000004531204572723A204D415854454D50F7
:1024B000004572723A204D415854454D50204245D6
:1024C00044004D415854454D50207472696767650A
:1024D000726564004531204572723A204D494E5470
:1024E000454D50004572723A204D494E54454D506D
:1024F00020424544004D494E54454D502074726968
:10250000676765726564004D383420582059205A39
:10251000204500202F0020204E6F7A7A6C653A20EB
:1025200000200066696C616D656E74206C6F61647B
:10253000005761697420666F720020204E6F7A7AAE
:102540006C653A2000200066696C616D656E7420D0
:102550007075726765005761697420666F720074E8
:102560006F20726573756D65005761697420666FC1
:1025700072207072696E740000060900FE070192F5
:102580000321207FFF07FF07FF0000000600000176
:102590000707060200808080808000800302020618
:1025A0000105A0A00507070600005050F850F8509C
:1025B000500507070600002078A07028F0200507C6
:1025C00007060000C0C8102040981805070706003D
:1025D000006090A040A89068020303060104C04078
:1025E0008003070706010020408080804020030709
:1025F00007060100804020202040800505050600D8
:102600000120A870A8200505050600012020F8205B
:10261000200203030602FFC04080050101060003FB
:10262000F8020202060200C0C00505050600010806
:102630001020408005070706000070888888888879
:102640007003070706010040C040404040E0050716
:1026500007060000708808708080F80507070600EC
:1026600000F81020100808F00507070600001030D9
:102670005090F81010050707060000F880F00808D1
:102680008870050707060000708080F08888700554
:102690000707060000F8081020202020050707067D
:1026A0000000708888708888700507070600007031
:1026B000888878080870020505060200C0C000C0BE
:1026C000C00206060602FFC0C000C0408004070723
:1026D0000600001020408040201005030306000281
:1026E000F800F80407070601008040201020408011
:1026F000050707060000708808102000200507075E
:1027000006000070880868A8A87005070706000082
:10271000708888F8888888050707060000F0888890
:10272000F08888F0050707060000708880808088A0
:1027300070050707060000F08888888888F005077C
:1027400007060000F88080F08080F8050707060083
:1027500000F88080F0808080050707060000708800
:1027600080B8888870050707060000888888F88880
:1027700088880107070602008080808080808005AD
:1027800007070600003810101010906005070706B4
:1027900000008890A0C0A090880507070600008070
:1027A0008080808080F805070706000088D8A88808
:1027B0008888880507070600008888C8A898888840
:1027C0000507070600007088888888887005070755
:1027D000060000F08888F08080800507070600006A
:1027E00070888888A89068050707060000F0888828
:1027F000F0A0908805070706000078808070080820
:10280000F0050707060000F82020202020200507FB
:1028100007060000888888888888700507070600F2
:102820000088888888885020050707060000888867
:10283000888888A85005070706000088885020501F
:102840008888050707060000888888502020200512
:102850000707060000F80810204080F80307070665
:102860000100E08080808080E00505050600018091
:1028700040201008030707060100E0202020202048
:10288000E00503030600042050880501010600004E
:10289000F8020202060205804005050506000070E8
:1028A000087888780507070600008080B0C8888807
:1028B000F005050506000070808088700507070692
:1028C00000000808689888887805050506000070EB
:1028D00088F880700507070600003048E040404057
:1028E000400506060600FF7088887808700507070F
:1028F0000600008080B0C8888888010707060200AB
:10290000800080808080800308080601FF2000206E
:10291000202020A040040707060000808090A0C06F
:10292000A090030707060100C04040404040E0057A
:102930000505060000D0A8A8A8A805050506000002
:10294000B0C88888880505050600007088888870EA
:102950000506060600FFF08888F08080050606065A
:1029600000FF788888780808050505060000B0C8CB
:1029700080808005050506000070807008F004075F
:10298000070600004040E0404040300505050600D5
:1029900000888888986805050506000088888850A2
:1029A000200505050600008888A8A850050505062D
:1029B000000088502050880506060600FF88888899
:1029C000780870050505060000F8102040F8030798
:1029D0000706010020404080404020010707060212
:1029E000008080808080808003070706010080408F
:1029F000402040408005020206000268900000006E
:102A0000060000486F6D696E67206661696C6564D9
:102A100000206E6F7420656E74657265642E0A0006
:102A20004E6F206D6F76652E00286E6F2066696C84
:102A30006529005344207072696E74696E67206264
:102A400079746520004E6F74205344207072696E53
:102A500074696E670A0043757272656E74206669E8
:102A60006C653A20002569730025696D202569731E
:102A7000002569682025696D202569730025696432
:102A8000202569682025696D2025697300256979ED
:102A900020256964202569682025696D20256973D2
:102AA000005072696E742074696D653A200050722E
:102AB0006F7465637465642050696E0A0070012C40
:102AC0000190012701B0012201C0011D01F0011890
:102AD000011002130130020E01600209019002048C
:102AE00001C002FF000003FA004003F5008003F07C
:102AF00000D003EB002004E6007004E100E004DCF9
:102B0000004005D700C005D2004006CD00D006C861
:102B1000008007C3003008BE00F008B900C009B447
:102B200000B00AAF00B00BAA00D00CA500000EA0A8
:102B300000500F9B00C01096005012910000148CA2
:102B400000C0158700B0178200B0197D00D01B7837
:102B500000001E730040206E0090226900F0246483
:102B60000040275F0090295A00E02B5500102E509E
:102B70000020304B0010324600E033410090353CDD
:102B8000001037370070383200A0392D00B03A28D5
:102B900000A03B2300603C1E00103D1900903D1436
:102BA00000103E0F00703E0A00C03E0500003F00CE
:102BB00000403FFBFF803FF6FFC03FF1FF20424057
:102BC0003A0020403A00486F6D6520257325732533
:102BD00073206669727374002066697273740A00E8
:102BE0005A0059005800486F6D652000577269748B
:102BF000696E6720746F2066696C653A20006F709B
:102C0000656E206661696C65642C2046696C653A66
:102C100020006F70656E206661696C65642C2046CB
:102C2000696C653A200046696C652073656C656364
:102C30007465640A002053697A653A200046696C1D
:102C400065206F70656E65643A20002066696C656A
:102C50003A2000646F696E67006672657368004EA3
:102C60006F772000454E4420535542524F555449EA
:102C70004E450A002220706F730022207061726539
:102C80006E743A2200535542524F5554494E4520D6
:102C900043414C4C207461726765743A22004B4981
:102CA0004C4C45442E2000747279696E6720746F15
:102CB0002063616C6C207375622D67636F6465209F
:102CC00066696C6573207769746820746F6F206D16
:102CD000616E79206C6576656C732E204D415820AD
:102CE0006C6576656C2069733A0043616E6E6F7433
:102CF000206F70656E207375626469722000656371
:102D0000686F3A004368616E67652066696C616D43
:102D1000656E74004368616E67652066696C616DFD
:102D2000656E74004D363030204230004261627969
:102D300073746570205A00466C6F7700466C6F772D
:102D40000046616E2073706565640046616E207395
:102D5000706565640042656400426564004E6F7A88
:102D60007A6C65004E6F7A7A6C6500466164652006
:102D700048656967687400466164652048656967ED
:102D8000687400426564205A00426564205A00530A
:102D900070656564005370656564004D61696E001F
:102DA0005072656865617420504C4120456E640026
:102DB0005072656865617420504C41204265640022
:102DC0005072656865617420504C410050726570A6
:102DD00061726500507265686561742041425320DC
:102DE000456E6400507265686561742041425320ED
:102DF0004265640050726568656174204142530009
:102E000050726570617265004572726F723A004669
:102E1000696C652064656C657465643A0044656C32
:102E20006574696F6E206661696C65642C20466903
:102E30006C653A20006F70656E206661696C656430
:102E40002C2046696C653A20004D3234004D3233F7
:102E500020257300556E6B6E6F776E20636F6D6DFE
:102E6000616E643A202200486F74656E6420746F4E
:102E70006F20636F6C640A006F70656E2066616915
:102E80006C65642C2046696C653A20005772697441
:102E9000696E6720746F2066696C653A2000534440
:102EA0002063617264206F6B0A006F70656E526FF1
:102EB0006F74206661696C65640A00766F6C756D6D
:102EC000652E696E6974206661696C65640A0053D9
:102ED0004420696E6974206661696C0A00486172F9
:102EE00064636F6465642044656661756C74205327
:102EF000657474696E6773204C6F616465640A0061
:102F0000B80B0000B80B00006400000010270000A0
:102F100000009643000096430000A0400000C84116
:102F20000000A0420000A0420000C8430000BA42D6
:102F30000A4D6561737572656420706F696E747394
:102F40003A0A005A206F66667365743A20004E751F
:102F50006D20582C593A20332C330A00290A0020BE
:102F600062797465733B2063726320002073746F11
:102F70007265642073657474696E6773207265741A
:102F8000726965766564202800202863616C63752A
:102F90006C6174656429210A0020213D20004545AB
:102FA00050524F4D20435243206D69736D617463DD
:102FB00068202D202873746F7265642920002053C7
:102FC000697A653A2000496E6465783A2000204DA0
:102FD00061726C696E3D563535290A0028454550A9
:102FE000524F4D3D00454550524F4D20766572730E
:102FF000696F6E206D69736D617463682000435260
:103000002D313053352052656164792E005072693C
:103010006E74696E672E2E2E005072696E74207069
:103020006175736564004D31303620502569205339
:103030002569004D31303920532569004D31393033
:1030400020532569004D3432302053300A4732383E
:10305000205820590053746F70207072696E74008C
:10306000526573756D65207072696E7400506F776C
:1030700065722D4C6F7373205265636F766572793C
:10308000005072696E742061626F72746564004DE5
:103090003231004E6F2053442063617264004368F4
:1030A000616E67652053442063617264004D323164
:1030B000005072696E742066726F6D205344005325
:1030C000746F70207072696E7400496E69742E207E
:1030D0005344206361726400526573756D6520709E
:1030E00072696E74005061757365207072696E74D8
:1030F00000436F6E74726F6C005072657061726520
:103100000054756E6500496E666F20736372656565
:103110006E004261627973746570205A004D6F765B
:10312000652058004D6F76652059004D6F766520FB
:103130005A004578747275646572004D6F7665202B
:10314000302E316D6D004D6F766520316D6D004D07
:103150006F76652031306D6D004D6F76652061783A
:103160006973004578747275646572004D6F766599
:10317000205A004D6F76652059004D6F76652058B6
:10318000004578747275646572004D6F7665205ADB
:10319000004D6F76652059004D6F766520580050C0
:1031A00072657061726500496E697469616C697AF3
:1031B0006520454550524F4D00436F6E74726F6CE1
:1031C0000000A5FBE8FA11241FBECFEFD1E2DEBF5D
:1031D000CDBF00E00CBF13E0A0E0B2E0E4EEF8E108
:1031E00002E00BBF02C007900D92A638B107D9F7D5
:1031F0002BE1A6E8B3E001C01D92AC3DB207E1F7B8
:1032000018E1C2EED8E100E006C021970109802F45
:10321000FE010F94C40BC13ED10780E00807A9F757
:103220000E94F1F30D94610C0C9400002F923F92D8
:103230004F925F926F927F928F929F92AF92BF92C6
:10324000CF92DF92EF92FF920F931F93CF93DF9372
:10325000CDB7DEB7CA56D1090FB6F894DEBF0FBEA0
:10326000CDBF21E02093B01180912D118D3409F450
:1032700026C4843511F40C94702E873411F00C940C
:10328000B42E80912B1190912C118C31910509F461
:103290001CC164F48430910509F4A8C01CF40297A1
:1032A00038F109C44B9709F4E0C005C48A3591058B
:1032B00009F491C344F48D31910509F40BC18A9747
:1032C00009F405C3F8C38B35910509F488C38C351F
:1032D000910509F0F0C3AAE52A2EA2E03A2EB9E63C
:1032E000CB2EBBE0DB2EE12CF12C00E010E0B4C3D0
:1032F00080912302882311F40C94B62E1AE5812EB6
:1033000012E0912E05E7C02E0BE0D02E89E1E82EC9
:1033100089E0F82E95EAA92E9BE1B92E00E010E095
:10332000D4018D914D010E94F738882321F10E942C
:10333000C438F801E957FC4F2081211104C02091C5
:103340008B03222341F0F701208131814281538197
:103350000F948F090AC00330110539F0D5012D9162
:103360003D914D915C910F948E09F60160837183BC
:10337000828393830AC0F70180819181A281B38106
:10338000F60180839183A283B3830F5F1F4FF4E024
:10339000CF0ED11C24E0E20EF11C34E0A30EB11CD0
:1033A0000430110509F0BCCF86E40E943E39882321
:1033B000C9F00E94C43820E030E0A9010F94F20A5D
:1033C000181684F40E94C43820E030E040E752E44C
:1033D0000F94060A609308027093090280930A0210
:1033E00090930B020E9459A00C94B62E80E50E9487
:1033F0003E39882329F00E9484386B017C0103C088
:10340000C12CD12C760183E50E943E39882361F0DE
:103410000E94C43820E030E04AE754E40F94780377
:103420000F94730A6B017C010E94A2788091E515CC
:10343000811105C060E08BE992E00E9454BB0E94BC
:10344000A855C60ED71EE81EF91E0E94A855DC011D
:10345000CB018C199D09AE09BF09B7FD02C00C94C0
:10346000B62E80E00E942D9DF0CF0E946BCE811180
:103470000C94B62E80E090E0A0E2B1E489839A83B8
:10348000AB83BC8380E090E0A5EFB3E48D839E83A3
:10349000AF83B88780E090E0A0EAB1E489879A879B
:1034A000AB87BC8780E50E943E39882319F00E94D3
:1034B000943801C060E068A3BE016F5F7F4FCE010A
:1034C00080960E94F6E10C94B62E80E00E94BBC468
:1034D0000C94B62E83E50E943E39882311F10E9498
:1034E000A438863070F0E6E5F3E084918F010F5F39
:1034F0001F4F882311F40C94B62E0E946439F801F2
:10350000F4CF833009F458C134F4813071F1823042
:1035100009F43FC006C0843009F4B0C1853009F415
:10352000BDC10E94AFC2882399F080911809811112
:1035300003C06AE273E002C066E273E08EE293E0E9
:103540000E94F7698AE00E9464390E949DE2BBC133
:10355000E6E3F3E084918F010F5F1F4F882309F4A6
:10356000B2C10E946439F801F5CF0E9451E3109274
:103570000102109200028091C90B81110AC083E2FE
:1035800093E09093461B8093451B0E9493390C94C3
:10359000B62E809100029091010297FF0EC0EAEFD3
:1035A000F2E084918F010F5F1F4F882311F40C9478
:1035B000B62E0E946439F801F4CF0097A1F48091EF
:1035C00057028093860319821A821B821C8218A2DA
:1035D00019A21AA21BA2BE016F5F7F4FCE01809677
:1035E0000E949DC42BC0815063E00F94740B80FF38
:1035F00003C022E0291B922F292F990F330BF901C9
:10360000EE0FFF1FE20FF31FE80FF11D87FDFA9584
:10361000EE0FFF1FEE0FFF1FEC59F44E80912109B2
:1036200090912209A0912309B0912409808391836C
:10363000A283B38380918603809357028091000216
:1036400090910102893091050CF067C010925702E9
:103650009C012F5F3F4F309301022093000263E0F3
:103660000F94740B80FF03C022E0291B922F40911E
:10367000210950912209609123097091240948A3DE
:1036800059A36AA37BA319821A821B821C8244E07D
:10369000840290011124B9016A59774E4B01DB0174
:1036A0002D913D914D915C91B4E09B02C00111249C
:1036B000FC01EE58F74E5F01608171818281938138
:1036C000DE0111966D01E12CF12C00EA10E40E945C
:1036D000BEC319821A821B821C82B601CE0180965B
:1036E0000E949DC4F50180819181A281B381809364
:1036F000190990931A09A0931B09B0931C09F401AE
:1037000080819181A281B38180931D0990931E09CC
:10371000A0931F09B093200944C080E090E0A0EA84
:10372000B0E48093210990932209A0932309B093D8
:1037300024090E94A6370E94A2788FEF9FEF9093F2
:10374000010280930002E6EEF2E084918F010F5FA8
:103750001F4F882321F00E946439F801F6CF83E9D6
:1037600092E09A83898304E610E019A308A3BE01BE
:103770006F5F7F4FCE0180960E9406CE8AEB92E06B
:103780009A83898319A308A3BE016F5F7F4FCE017F
:1037900080960E9406CE81E00E94BBC481E00E9418
:1037A000DFC21092C90B6091000270910102693072
:1037B00071050CF47BC078C088E50E943E398823EF
:1037C000A1F00E9494381FEF160F1330A8F0EFEC11
:1037D000F2E084918F010F5F1F4F882311F40C9446
:1037E000B62E0E946439F801F4CF88E50E9464394E
:1037F0000E9443FB0C94B62E89E50E943E39882333
:10380000A1F00E9494380FEF060F0330A8F0E8EB08
:10381000F2E084918F010F5F1F4F882311F40C9405
:10382000B62E0E946439F801F4CF89E50E9464390C
:103830000E9443FB0C94B62E8AE50E943E398823F1
:10384000B1F00E94C438212F30E0F901EE0FFF1FC4
:10385000E20FF31FE00FF11DEE0FFF1FEE0FFF1F32
:10386000EC59F44E60837183828393832CC08AE584
:103870000E9464390E9443FB0C94B62E8AE50E9494
:103880003E398823A1F30E94C4386093CA0B709319
:10389000CB0B8093CC0B9093CD0B15C080E00E9496
:1038A000DFC20E9451E30FC069E070E089EA92E054
:1038B0000E94129D69E070E084EA92E00E94129DED
:1038C0008AE00E9464390E94E2660C94B62E8091D0
:1038D0002302882311F40C94B62E89E40E943E3909
:1038E000F82E882321F00E949438062F01C000E0B2
:1038F0008AE40E943E39E82E882331F00E949438F1
:10390000162FF11004C00AC010E0FF20B1F0033000
:1039100010F40C94A033EDE6F3E003C01330D8F7B5
:103920000CC084918F010F5F1F4F882311F40C94FA
:10393000B62E0E946439F801F4CF0E945039FF205E
:1039400091F024E00202F0011124EE58F74E80813C
:103950009181A281B3818093750B9093760BA09394
:10396000770BB093780BEE2091F034E01302F00166
:103970001124EA59F74E80819181A281B38180930D
:10398000790B90937A0BA0937B0BB0937C0B80E523
:103990000E943E39882319F00E94B53803C080E5A3
:1039A0000E94F73886E40E943E39882309F41ACD34
:1039B0000E94C4386B017C0120E030E0A9010F9423
:1039C000F20A18160CF00ECD20E030E040E752E489
:1039D000C701B601FDCC10928B030C94B62E209338
:1039E0008B030C94B62E0E94C4382B013C0113307B
:1039F00059F0F701EB55F44E20813181428153811A
:103A00000F948E092B013C01F701E75EF64F2081F0
:103A1000318142815381C301B2010F948E094B0160
:103A20005C012DEB37E346E855EB0F94F20A87FD76
:103A30001BC02DEB37E346E855E3C501B4010F94F5
:103A4000130318168CF01F5FB4E0CB0ED11CE4E01A
:103A5000EE0EF11C143039F1D1018D911D010E943F
:103A60003E39882381F3BFCF133051F440922509AA
:103A700050922609609227097092280901E0E3CF4D
:103A8000A5019401F60160817181828193810F9477
:103A90008F09D6016D937D938D939C931397812FFE
:103AA0000E94FD37D0CF002309F40DCF85E299E0C5
:103AB0000E940CCF08CF0E949FDB0C94B62E809101
:103AC0002B1190912C118337910509F45DC50CF0F1
:103AD000C5C08B34910509F41EC30CF065C0883154
:103AE000910509F493C284F58231910509F473C4F8
:103AF00084F497FF02C00C946D2E823091050CF473
:103B0000AFC1419711F00C946D2E0E94D4C10C945A
:103B1000B62E8531910509F45EC23CF4449711F04C
:103B20000C946D2EEEEAF3E015C28631910509F48E
:103B300056C2479711F00C946D2E0E9473D8E091F5
:103B40002911F0912A1155C28D31910511F40C946F
:103B5000B62EC4F48A31910509F4B2C20CF4AAC29B
:103B60008B31910509F4BAC24C9711F00C946D2E6B
:103B700040E060E08091291190912A110E9489CC47
:103B80000C94B62E8F31910509F4C1C20CF4AAC26F
:103B90008032910509F4AAC28A9711F00C946D2E17
:103BA0000E94DCBE0C94B62E8936910509F453C3ED
:103BB0005CF58335910509F40AC49CF48D349105B4
:103BC00009F4B1C20CF4ABC28135910509F4EAC322
:103BD0008235910511F00C946D2E10928A030C948D
:103BE000B62E8535910509F42BC40CF4F4C38C353D
:103BF000910509F440C48836910511F00C946D2E9E
:103C00000E9496BE0C94B62E8E36910509F48FC292
:103C100084F48B36910509F4B3C30CF4ADC38C3630
:103C2000910509F408C38D36910509F456C30C9427
:103C30006D2E8037910509F402C30CF48BC28137D5
:103C4000910509F404C38237910511F00C946D2E8F
:103C50000E94A2780E94E2660C94B62E8232F1E0B5
:103C60009F0711F40C9480280CF078C0883C9105D3
:103C700009F448C6ACF58937910509F4C4C5DCF4EC
:103C80008637910509F4EFC434F48537910509F4BA
:103C9000D9C40C946D2E8737910509F430C5883747
:103CA000910511F00C946D2E81E080932104809396
:103CB00020040C94B62E8139910509F4AAC534F478
:103CC0008C38910509F425C30C946D2E8B39910520
:103CD00009F4DCC28E3B910509F439C30C946D2EB6
:103CE0008E3C910509F488C7F4F48B3C910509F4E6
:103CF0006BC67CF4893C910511F00C946D2EA7EFF6
:103D0000EA2EAAE0FA2E0AE512E0B4E0DB2ED00E8D
:103D100041C68C3C910509F476C68D3C910509F4A9
:103D2000EAC60C946D2E8C3D910511F40C94DB27A2
:103D30004CF4833D910511F00C946D2EEEEFFCE2F6
:103D40000C94FD268D3D910511F40C94E827823EDC
:103D5000910511F40C9455280C946D2E8C3A31E099
:103D6000930709F46CC7F4F5833651E0950711F415
:103D70000C94A52CDCF48D3271E0970711F40C94AF
:103D8000B6283CF48C32914011F40C948D280C949C
:103D90006D2E8E32E1E09E0711F40C9457298F327C
:103DA000914011F40C94AB290C946D2E8A3921E0CA
:103DB000920709F448C24CF48039914011F00C94F8
:103DC0006D2E0E94A2780C94B62E843A51E095078D
:103DD00011F40C94BE2C853A914011F40C94C12C32
:103DE0000C946D2E883572E0970711F40C94CC2D4D
:103DF000ECF4853FB1E09B0711F40C94A32D4CF437
:103E0000843F914011F00C946D2E0E94873E0C94DB
:103E1000B62E863F21E0920711F40C94A62D883F20
:103E2000914011F40C94A92D0C946D2E8B3843E025
:103E3000940711F40C94B62E3CF48B35924011F497
:103E40000C94CF2D0C946D2E803A73E0970709F4F3
:103E500051C1873E934011F40C94582E0C946D2E52
:103E6000A0902911B0902A1180E50E943E39882344
:103E700059F00E9484386B017C0111E0672B682B9C
:103E8000692B31F410E004C010E0C12CD12C760174
:103E900083E50E943E39882311F40C94BB2E0E94C6
:103EA000C43820E030E04AE754E40F9478030F94DC
:103EB000730A6B017C0111110BC0672B682B692BF6
:103EC00039F4A114B10421F0F5018081811102C0FF
:103ED00010E001C011E00E94A278112329F061E0F6
:103EE000C5010E948EBB05C060E08CE893E00E9493
:103EF00054BB83E08093B01181E080934912C114D8
:103F0000D104E104F104F1F00E94A855C60ED71EB9
:103F1000E81EF91E0E94A855DC01CB018C199D09F1
:103F2000AE09BF09B7FD06C00E94DCEC1092491231
:103F30000C94B62E809149128823B1F380E00E9440
:103F40002D9DE8CF80914912882371F380E00E9473
:103F50002D9DF8CF84918F010F5F1F4F882321F093
:103F60000E946439F801F6CF10923A1B40E050E00D
:103F7000BA018EEC98E10E942C468BE1EEECF8E160
:103F8000DE01159601900D928A95E1F78091CC188B
:103F90009091CD189C838B838EED92E09A838983D8
:103FA00040E050E0BE016F5F7F4F80E090E00E94F4
:103FB0001DCACE0101960E94D680EFE9F3E08491FC
:103FC0008F010F5F1F4F882311F40C94B62E0E94AF
:103FD0006439F801F4CF0E94E9D80C94B62E1092FF
:103FE0009E1810929F180C94B62E803209F41082FD
:103FF000319680818111F9CF40E061E080912911F3
:1040000090912A110E9489CC0C94B62E83E50E94CF
:104010003E39882381F00E949438AB01BC01409363
:10402000361B5093371B6093381B7093391B86E601
:104030009AE10E942C4680919F18882319F081E014
:1040400080939E1884E50E943E39882379F10E946E
:104050009438A4966FAFA497A5967FAFA597A69620
:104060008FAFA697A7969FAFA7970E94F194A496AB
:104070006FADA497A5967FADA597A6968FADA69791
:10408000A7969FADA7976093B3107093B4108093D9
:10409000B5109093B610672B682B692B11F40C9414
:1040A000B62E81E080938A1B0C94B62E0E940C954C
:1040B0000C94B62E10929E180E942E950C94B62E3B
:1040C00080919F18882311F40C94B62E83E50E94EA
:1040D0003E3981110C94C02E0C94B62E0E943FC024
:1040E0000C94B62E0E9428C00C94B62E0E9419BFC4
:1040F0000C94B62E8091291190912A1121E02093E1
:104100009D1840E060E00E9489CC0C94B62E0E947D
:104110005ABF0C94B62E0E940C950C94B62E0E9499
:104120002E950C94B62E0E9443950C94B62E8EE4D8
:104130000E943E39882311F40C94B62E0E949438C4
:104140006093E1157093E2158093E3159093E41565
:104150000C94B62E83E50E94F738882359F083E546
:104160000E943E39882319F00E94A43801C080E0E3
:104170008093521BEEEFFCE284918F010F5F1F4F83
:10418000882321F00E946439F801F6CFEDECF3E0CA
:1041900084918F010F5F1F4F882321F00E946439A3
:1041A000F801F6CF8091521B8823A1F1FFEBCF2EAF
:1041B000F3E0DF2EE12CF12C20E08091521B90E007
:1041C0000E2C02C0959587950A94E2F780FF17C0E0
:1041D000BB24B394B20E222319F08CE20E946439FE
:1041E000F60125913491F901849189010F5F1F4FE8
:1041F000882321F00E9464399801F5CF2B2DFFEF21
:10420000EF1AFF0A32E0C30ED11C45E0E416F104B8
:10421000A1F60CC0E9ECF3E084918F010F5F1F4F12
:10422000882321F00E946439F801F6CF8AE00E94C9
:1042300064390C94B62E109244020C94B62E84ED80
:1042400093E00E94DE800E941A660C94B62E0E94B3
:10425000B1690C94B62E89E690E00E94013D81116F
:1042600011C0EDEDF3E084918F010F5F1F4F8823A4
:1042700021F00E946439F801F6CF0E9498C98AE0C3
:104280000E9464391092B0110C94A63383E50E9409
:104290003E39882311F40C94B62E0E94A438182FAE
:1042A0008D3308F01CE31093BF110E94A8556B01D9
:1042B0007C01212F30E0A8EEB3E00F947F09C60EF9
:1042C000D71EE81EF91EC092BB11D092BC11E0921D
:1042D000BD11F092BE110C94B62E8DE690E00E94B6
:1042E000013D81110C94B62E8091521B83FF02C0B8
:1042F0000C94B62E83E50E943E398EA381110C9456
:10430000D12E82E50E943E3981110C94D12E0C945D
:10431000B62E8091521B83FF02C00C94B62E83E50B
:104320000E943E39882311F40C94B62E0E94C438A2
:104330000F946E0A6837710514F068E770E07093A7
:10434000401B60933F1B0E9495A80C94B62E809151
:10435000521B83FF02C00C94B62E83E50E943E39A7
:104360008DAB81110C94493082E50E943E39811158
:104370000C9449300C94B62E0E94DB690C94B62E36
:1043800080E50E943E39811106C01092421B1092B6
:10439000411B0C94B62E0E949438672B11F00C949C
:1043A000B62EF3CF0E942BA90E9497DD1092421BDC
:1043B0001092411B68EE73E080E090E00E9466BAC4
:1043C00060E080E294E00E9454BB0C94B62E2093EF
:1043D0008A030C94B62E83E50E943E398823A1F00F
:1043E0000E94C43820E030E04AE754E40F94780398
:1043F0000F94730A60931F0270932002809321022E
:10440000909322020C94B62E88E50E94F738811111
:104410000C94C83189E50E94F73881110C94C83199
:104420008AE50E94F73881110C94C83185E40E9416
:10443000F73881110C94C8310E9497DD0C94B62E88
:1044400083E50E94F738882311F40C94B62E0E945D
:10445000C43820E030E04AE754E40F9478030F9426
:10446000730A6093B5117093B6118093B71190934E
:10447000B8110C94B62E3AE5C32E32E0D32E4EE896
:10448000E42E43E1F42E10E0D6018D916D010E94DF
:10449000F738882309F46DC0133009F063C00E9417
:1044A000C4384B015C0120E030E040EA51E40F9455
:1044B000130387FF4EC0A501940160919A13709178
:1044C0009B1380919C1390919D130F94060A2B01CE
:1044D0003C019B01AC0160911F0B7091200B8091FE
:1044E000210B9091220B0F94780360931F0B709314
:1044F000200B8093210B9093220BA30192016091DA
:10450000DB0A7091DC0A8091DD0A9091DE0A0F943B
:1045100078036093DB0A7093DC0A8093DD0A909342
:10452000DE0A60915C0B70915D0B80915E0B909147
:104530005F0B0F941703A30192010F9478030F945C
:10454000730A60935C0B70935D0B80935E0B90938A
:104550005F0B80929A1390929B13A0929C13B0923F
:104560009D1307C00E94C438F70160837183828362
:1045700093831F5FF4E0EF0EF11C143009F084CF39
:104580000E9487790C94B62EECE0F5E084918F01BF
:104590000F5F1F4F882321F00E946439F801F6CF86
:1045A00060E08CEF94E00E949E6661E085EF94E00D
:1045B0000E949E6661E08AEE94E00E949E6661E041
:1045C0008AED94E00E949E6660E081ED94E00E9496
:1045D0009E6661E087EC94E00E949E6660E08DEB51
:1045E00094E00E949E6660E085EB94E00E949E66E7
:1045F00061E087EA94E00E949E6660E089E994E0C9
:104600000E949E6660E08AE894E00E949E6660E0F8
:104610008CE794E00E949E6660E086E694E00E944B
:104620009E6660E085E594E00E949E6660E080E41E
:1046300094E00E949E6661E08DE294E00E949E6696
:104640000C94B62E8091291190912A11DC012C91A5
:10465000211104C00E94DCEC0C94B62E60E00E9494
:104660008EBB0C94B62E0091291110912A1183E073
:10467000D12C40E08150E1F0F8019081292F2B7F6F
:104680002134C1F721812133A9F7913421F09534E8
:1046900021F441E002C0DD24D39498012E5F3F4F06
:1046A00089012F5F3F4FD8019C919032C9F3E2CF2F
:1046B000442369F0EEEFFCE284917F01BFEFEB1A37
:1046C000FB0A882321F00E946439F701F5CFDD2031
:1046D00069F0EFECF5E084917F012FEFE21AF20A26
:1046E000882321F00E946439F701F5CFD8018D911C
:1046F0008D01882309F49ACD0E946439F7CFE6EF43
:10470000F5E084918F010F5F1F4F882321F00E94F5
:104710006439F801F6CFEEEEF5E084918F010F5F7A
:104720001F4F882321F00E946439F801F6CF659964
:1047300003C00EE213E002C003E313E0F80181912D
:104740008F01882319F00E946439F8CF8AE00E9413
:104750006439E6EEF5E084918F010F5F1F4F8823E7
:1047600021F00E946439F801F6CF8091030181FDA8
:1047700003C00EE213E002C003E313E0D8018D9101
:104780008D01882319F00E946439F8CF8AE00E94D5
:104790006439EEEDF5E084918F010F5F1F4F8823A0
:1047A00021F00E946439F801F6CF4B9903C00EE264
:1047B00013E002C003E313E0F80181918F01882325
:1047C00019F00E946439F8CF8AE00E946439E3ED61
:1047D000F5E084918F010F5F1F4F882321F00E9425
:1047E0006439F801F6CF649B03C00EE213E002C007
:1047F00003E313E0D8018D918D01882309F416CDD0
:104800000E946439F7CF10922104109220040C9476
:10481000B62E83E50E943E39882319F00E94943811
:1048200002C060E070E08B01112702301105D4F066
:10483000E8E0FEE284918F010F5F1F4F882321F093
:104840000E946439F801F6CFE0E1F6E084918F012F
:104850000F5F1F4F882311F40C94B62E0E94643909
:10486000F801F4CF88E40E943E398823A1F00E9429
:1048700094386A3A710534F06C3E71052CF06BEE99
:1048800070E002C06AEA70E0F801EE0FFF1FE15429
:10489000F54F7183608386E40E943E398823A9F036
:1048A0000E949438F801EE0FFF1FED53F54F71830E
:1048B00060836F3F710519F014F06FEF70E077FFC0
:1048C00002C060E070E07183608382E40E943E3940
:1048D000882311F40C94B62E0E949438653071052B
:1048E00034F06A3671052CF069E670E002C065E0CC
:1048F00070E0000F111FF801E554F54F71836083DC
:104900000C94B62E88EC90E00E94013D81110C942D
:10491000B62E84E40E94F7388823C1F10E94C4387F
:1049200011E020E030E0A9010F941303811101C0D0
:1049300010E010932F0B112349F10E94C438E0912D
:104940007212B4E0EB9FF0011124E55DF44F608337
:1049500071838283938320E030E0A90160912B0B67
:1049600070912C0B80912D0B90912E0B0F941303B3
:1049700081110CC080E090E0A0EEBFE380932B0B90
:1049800090932C0BA0932D0BB0932E0B0E9432DD35
:104990000C94B62EF80181918F010E94F73888237C
:1049A00051F00E94C4380F94730AD7016D937D9320
:1049B0008D939C931397B4E0EB0EF11CD012EACFC9
:1049C0000E947F6A0C94B62EEFECEE2EEAE0FE2EEB
:1049D0000AE512E0F4E0DF2ED00EF80181918F019C
:1049E0000E94F738882341F00E94C438D7016D93A4
:1049F0007D938D939C931397B4E0EB0EF11CD01232
:104A0000ECCF0C94B62E83E50E943E398823A1F0AA
:104A10000E94C43860930F0B7093100B8093110B9E
:104A20009093120B6093070B7093080B8093090B04
:104A300090930A0B10E001C011E080E50E943E391E
:104A4000882359F00E94C43860930F0B7093100BA9
:104A50008093110B9093120B10E082E50E943E3977
:104A6000882359F00E94C43860930B0B70930C0B91
:104A700080930D0B90930E0B10E084E50E943E395D
:104A8000882361F00E94C4386093070B7093080B71
:104A90008093090B90930A0B0C94B62E112311F4FA
:104AA0000C94B62E40910F0B5091100B6091110B8E
:104AB0007091120B88E396E00E94F59C40910B0BDD
:104AC00050910C0B60910D0B70910E0B85E396E0ED
:104AD0000E94F59C4091070B5091080B6091090BC7
:104AE00070910A0B82E396E00E94F59C8AE00E9496
:104AF00064390C94B62E82E40E94F738882351F072
:104B00000E94843860934C0B70934D0B80934E0B36
:104B100090934F0B83E50E94F738882351F00E9451
:104B2000C4386093CB0A7093CC0A8093CD0A9093DB
:104B3000CE0A84E50E94F738882351F00E94C438D9
:104B40006093C70A7093C80A8093C90A9093CA0AEF
:104B500088E50E94F738882351F00E94C43860939A
:104B6000130B7093140B8093150B9093160B89E520
:104B70000E94F738882351F00E94C4386093170BC5
:104B80007093180B8093190B90931A0B8AE50E946F
:104B9000F7388823F1F00E94C43860931B0B7093A0
:104BA0001C0B80931D0B90931E0B2DEC3CEC4CECDE
:104BB0005DE30F941303181664F0E8E4F6E08491C3
:104BC0008F010F5F1F4F882321F00E946439F80185
:104BD000F6CF85E40E94F738882311F40C94B62EA2
:104BE0000E94C43860931F0B7093200B8093210B9D
:104BF0009093220B0C94B62E6AE5C62E62E0D62E58
:104C000073E0E72E79E0F72E10E0F60181916F0155
:104C10000E94F738882359F00E94C438D7016D9359
:104C20007D938D939C931397812F0E94FD371F5F77
:104C3000B4E0EB0EF11C133041F70C94631C0E949E
:104C40006BCE81110C94B62E57E4852E54E1952E2F
:104C5000E9E1F9E0FFA3EEA39E012F5F3F4F590169
:104C600000EA14E1190133E0300F3AA7F40165912D
:104C7000759185919491AEA1BFA1CD90DD90ED90FD
:104C8000FD90BFA3AEA3A70196010F948E092B013F
:104C90003C0120E030E040EA51EC0F94F20A87FD3D
:104CA00010C020E030E040EA51E4C301B2010F94AB
:104CB0001303181634F0F10140825182628273822C
:104CC0000EC0F80184911816B4F7F7FAF094F7F8CB
:104CD000F094D101CD92DD92ED92FC921397D10127
:104CE000CD90DD90ED90FD901D0120E030E040EA98
:104CF00051ECC701B6010F94F20A87FF03C0E8E048
:104D0000FEE20BC020E030E040EA51E4C701B6010A
:104D10000F941303181674F5F2CF84918F010F5F6F
:104D20001F4F882321F00E946439F801F6CFE8E98B
:104D3000F6E084918F010F5F1F4F882321F00E94BE
:104D40006439F801F6CF61E08AE896E00E9454BB2E
:104D50000E94F68788E290E099A388A388EC90E00F
:104D60009DA38CA3BE01605E7F4FCE0184960E94FE
:104D700006CEFCC7B4E08B0E911C0F5F1F4FEAA557
:104D8000E01374CF43E0E42E49E0F42E10E0F50187
:104D900081919191A191B1915F01F70181939193DB
:104DA000A193B1937F01812F0E94FD371F5F1330C4
:104DB00071F70E94E26660E08AE796E00E9454BBC9
:104DC00083E992E09DA38CA304E610E019A308A355
:104DD000BE016C5D7F4FCE0180960E9406CE8AEBAD
:104DE00092E09DA38CA319A308A3BE016C5D7F4F25
:104DF000CE0180960E9406CEB9C784918F010F5FC5
:104E00001F4F882321F00E946439F801F6CF83E513
:104E10000E94F738882321F00E94B538809357020A
:104E2000EEEDF6E084918F010F5F1F4F882321F094
:104E30000E946439F801F6CF80915702811103C0B6
:104E4000EAEDF6E002C0E6EDF6E084918F010F5F37
:104E50001F4F882321F00E946439F801F6CFEEEC51
:104E6000F6E084918F010F5F1F4F882321F00E948D
:104E70006439F801F6CF2091A51B3091A61B409113
:104E8000A71B5091A81B6091B11B7091B21B809120
:104E9000B31B9091B41B0F948F09AB01BC018CEC38
:104EA00096E00E94F59C2091A91B3091AA1B40918D
:104EB000AB1B5091AC1B6091B51B7091B61B8091E0
:104EC000B71B9091B81B0F948F09AB01BC0189EC03
:104ED00096E00E94F59C2091AD1B3091AE1B409155
:104EE000AF1B5091B01B6091B91B7091BA1B8091A0
:104EF000BB1B9091BC1B0F948F09AB01BC0186ECCE
:104F000096E00E94F59CEEEBF6E084918F010F5F36
:104F10001F4F882321F00E946439F801F6CF2091B9
:104F2000A51B3091A61B4091A71B5091A81B609117
:104F30004B0270914C0280914D0290914E020F9461
:104F40008F09AB01BC018CEB96E00E94F59C20918F
:104F5000A91B3091AA1B4091AB1B5091AC1B6091D7
:104F60004F027091500280915102909152020F9421
:104F70008F09AB01BC0189EB96E00E94F59C209162
:104F8000AD1B3091AE1B4091AF1B5091B01B609197
:104F900053027091540280915502909156020F94E1
:104FA0008F09AB01BC0186EB96E00E94F59C8AE07C
:104FB0000E946439DBC683E50E943E39882309F4E8
:104FC000D5C60E94943870933F0260933E02CEC6CD
:104FD0008DED90E00E94013D8111C8C683E50E94DD
:104FE0003E398823D1F10091721210E00E9494386A
:104FF000000F111FF801E45CFD4F71836083809105
:10500000721290E07C01EE0CFF1CEE0CFF1C87017D
:10501000085C1D4F880F991FFC01E45CFD4F608107
:105020007181072E000C880B990B0F9419032AE04D
:1050300037ED43E25CE30F947803F701EE55FC4E45
:1050400020813181428153810F947803D8016D937F
:105050007D938D939C93139789C6EEEFFCE2849128
:105060008F010F5F1F4F882321F00E946439F801E0
:10507000F6CF85E40E94643980917212805D0E94AF
:105080006439E0917212F0E0EE0FFF1FE45CFD4F17
:10509000608171818EEE96E00E94129D85E20E94F1
:1050A00064398AE00E94643961C680E50E94F7385D
:1050B000882309F45BC60E9494386B017C0183E568
:1050C0000E943E39882321F00E9494388B0102C04F
:1050D0000FEF1FEFC8010196039708F047C6D7FCF2
:1050E00045C69C2DE6EFF6E08DE28E0F24919217D7
:1050F00011F40C94F53131968E13F8CF0C94F831ED
:105100008AE50E943E3981110C94213283E50E9488
:105110003E3981110C94213229C683E50E943E3923
:10512000882319F00E94943802C064E071E079A3EA
:1051300068A380E50E943E39882339F00E949438A4
:105140006938B3E17B0730F402C068EE73E07A831C
:10515000698304C088E893E19A838983BE01605E15
:105160007F4FCE0101960E9406CE00C685E40E94C4
:105170003E39811110C080E50E94F738882391F0F4
:105180000E94C4386093AE0A7093AF0A8093B00A4D
:105190009093B10A07C00E94A438882361F3E8E025
:1051A000FEE26EC089E40E94F738882381F00E94F5
:1051B000C4382CEA35EC47E25EE30F947803609341
:1051C000B60A7093B70A8093B80A9093B90A84E438
:1051D0000E94F738882381F00E94C4382CEA35EC0D
:1051E00047E25EE30F94060A6093B20A7093B30A33
:1051F0008093B40A9093B50AEEEFFCE284918F019C
:105200000F5F1F4F882321F00E946439F801F6CF09
:105210004091AE0A5091AF0A6091B00A7091B10A04
:105220008BE297E00E94F59C2CEA35EC47E25EE3C6
:105230006091B60A7091B70A8091B80A9091B90A44
:105240000F94060AAB01BC0187E297E00E94F59C2F
:105250002CEA35EC47E25EE36091B20A7091B30A42
:105260008091B40A9091B50A0F947803AB01BC0108
:1052700083E297E00E94F59C8AE00E94643976C53B
:1052800084918F010F5F1F4F882321F00E946439A2
:10529000F801F6CFEFE2F7E084918F010F5F1F4F27
:1052A000882309F463C50E946439F801F5CF83E5CA
:1052B0000E94F738182F882371F00E94C4380F9489
:1052C0006E0A709346026093450221E0672B09F055
:1052D00020E020934F1B80E50E94F738882359F087
:1052E0002091450230914602232B11F00E94B538DF
:1052F00080934F1B3BC5111139C5EEEFFCE2849141
:105300008F010F5F1F4F882321F00E946439F8013D
:10531000F6CF80914F1B811103C06DE373E002C093
:1053200060E373E086E597E00E94F76960914502CB
:105330007091460285E497E00E94129DE1E4F7E057
:1053400084918F010F5F1F4F882309F40FC50E94BE
:105350006439F801F5CF85E40E943E39882321F0B5
:105360000E9494387B0102C0E12CF12C83E40E945E
:105370003E39882331F00E9494382B966FAF2B97DB
:1053800004C025E02B962FAF2B9785E50E943E3970
:10539000882319F00E94B53803C085E50E94F738CC
:1053A00067968FAF6797F7FC07C0812C912CB6E109
:1053B000AB2EB3E4BB2E06C0812C912CACE8AA2EF8
:1053C000A2E4BA2E83E50E943E39882321F00E9490
:1053D000C4384B015C01E114F10411F41092721213
:1053E0000E94A8552B013C01EE2069F0E8EDF8E0A1
:1053F00084918F010F5F1F4F882309F4B7C40E9467
:105400006439F801F5CFE2E0F9E084917F013FEFE4
:10541000E31AF30A882321F00E946439F701F5CFDB
:10542000C501B4010F946E0A072E000C880B990B6E
:105430000F9419036EA77AAB8BAB9CABB301A2019F
:10544000405E514B6F4F7F4FA3964CAF5DAF6EAF39
:105450007FAFA3970E942BA98FE78093701281E002
:105460008093440262964CAE5DAE6EAE7FAE6297A4
:105470006B964CAE5DAE6EAE7FAE6B972E961FAE4A
:105480002E976F961CAE1DAE1EAE1FAE6F971FAA55
:1054900050E45BAF6CE16CAF76E47DAF1EAE1FAE47
:1054A00021961FAE219722961FAE22972A961CAEF8
:1054B0001DAE1EAE1FAE2A9726961CAE1DAE1EAEAA
:1054C0001FAE2697C12CD12C76018FE790E0A0E08B
:1054D000B0E08AA79BA7ACA7BDA7FFE78F2E912CB2
:1054E000A12CB12C66961CAE1DAE1EAE1FAE6697EB
:1054F00091E02D969FAF2D971EAA1DAA10E0212C9A
:10550000312C00E02B96AFAD2B970A2E000CBB0B75
:105510002C96BFAFAEAF2C9780914402882309F43C
:10552000D2C00E94A8556EA37FA388A799A7809197
:10553000DB11882309F4ABC00E94EBA910914A1B30
:1055400020904B1B30904C1B00914D1B212F322D76
:10555000432D502F6EAD7FAD21968FAD21972296B2
:105560009FAD22970F94130387FF08C01EAF2FAE85
:1055700021963FAE219722960FAF2297212F322DF1
:10558000432D502F6FA97BAD8CAD9DAD0F94F20ACA
:10559000181624F41FAB2BAE3CAE0DAF2D96BFAD4D
:1055A0002D972EA53AA94BA95CA9612F722D832DA9
:1055B000902FBB2309F451C00F94F20A18160CF077
:1055C00066C02EA13FA148A559A524193509460951
:1055D0005709AB962CAF3DAF4EAF5FAFAB97DA013B
:1055E000C90188589341A109B109B7FD50C0D5013F
:1055F000C4014AA55BA56CA57DA5841B950BA60BD4
:10560000B70BB595A7959795879580937012AB9634
:105610006CAD7DAD8EAD9FADAB9766966CAF7DAF3B
:105620008EAF9FAF66977EA57EAF8AA98FAF9BA9ED
:1056300021969FAF2197ACA92296AFAF22972EA1BA
:105640003FA148A559A562962CAF3DAF4EAF5FAFC5
:1056500062972D961FAE2D971AC00F94130387FFE4
:1056600016C08EA19FA1A8A5B9A562964CAD5DAD4F
:105670006EAD7FAD6297841B950BA60BB70BAC018B
:10568000BD01485853416109710977FF12C720E0F5
:1056900030E040EA51E46EA57AA98BA99CA90F9449
:1056A0008F099B01AC01612F722D832D902F0F94D8
:1056B000F20A18167CF4E4E6F8E084918F010F5F9B
:1056C0001F4F811103C00E942BA950C30E9464394F
:1056D000F801F3CF8EA19FA1A8A5B9A56B962CAD1B
:1056E0003DAD4EAD5FAD6B97821B930BA40BB50B1D
:1056F000B7FD90C00E9498C98AE00E9464394EA10B
:105700005FA168A579A54053584F6F4F7F4F6B96A7
:105710004CAF5DAF6EAF7FAF6B972E965FAD2E97A0
:1057200051115DC06F962CAD3DAD4EAD5FAD6F9725
:10573000612F722D832D902F0F94F20A1816D4F535
:1057400020E030E040E050E4612F722D832D902F57
:105750000F948F096F966CAF7DAF8EAF9FAF6F9731
:105760006EA17FA188A599A5605E714B8F4F9F4F59
:10577000A3966CAF7DAF8EAF9FAFA39720E030E0D4
:1057800040EC50E46EA57AA98BA99CA90F948E09D0
:105790009B01AC0171E02E967FAF2E97612F722D89
:1057A000832D902F0F94F20A1816A4F12E961FAE97
:1057B0002E9730C08EA19FA1A8A5B9A5A3962CAD08
:1057C0003DAD4EAD5FADA397821B930BA40BB50B04
:1057D000B7FD20C043E458E065E578E018C020E05C
:1057E00030E040EA51E46EA57AA98BA99CA90F94F8
:1057F0008E099B01AC01612F722D832D902F0F9488
:10580000130387FF07C040E258E063E378E080E0DD
:105810000E940BAA8EA19FA1A8A5B9A5880F991FC8
:10582000AA1FBB1F62964CAD5DAD6EAD7FAD62979A
:10583000841B950BA60BB70B84199509A609B7090C
:1058400081389F44A241B10568F0E2E0F8E084911C
:105850008F010F5F1F4F882309F435CF0E946439F1
:10586000F801F5CF6DA97EA92C968EAD9FAD2C9732
:10587000861797070CF066C0E5EAF7E084918F0180
:105880000F5F1F4F882321F00E946439F801F6CF83
:10589000B701A60181E997E00E94F59C8AE00E9489
:1058A000643926964CAD5DAD6EAD7FAD26978DE724
:1058B00097E00E94F59C8AE00E9464392A964CADDC
:1058C0005DAD6EAD7FAD2A9789E697E00E94F59CAD
:1058D0008AE00E94643967969FAD6797992309F41F
:1058E00045C2C092AE0AD092AF0AE092B00AF092DE
:1058F000B10A2CEA35EC47E25EE326966CAD7DAD4D
:105900008EAD9FAD26970F9478036093B60A70937F
:10591000B70A8093B80A9093B90A2CEA35EC47E2AB
:105920005EE32A966CAD7DAD8EAD9FAD2A970F9448
:10593000060A6093B20A7093B30A8093B40A9093F4
:10594000B50A14C20E94B5BBE7CDE8E0FEE284913F
:105950008F010F5F1F4F882321F00E946439F801E7
:10596000F6CFE6E1F9E084918F010F5F1F4F8823A6
:1059700009F4FCC10E946439F801F5CF0E94CF6799
:10598000F5C188E50E94F738B82E89E40E94F738FF
:10599000A82E882319F00E9494381AC0BB20D1F099
:1059A0000E94C43820E030E040E251E40F948E09B8
:1059B00020E030E040EF52E40F948F0929E838E806
:1059C00048E85BE30F9478030F946E0A633010F499
:1059D000F62E02C0FF24FA9489E50E94F738E82EDB
:1059E0008AE40E94F738182F882319F00E9494380F
:1059F0001AC0EE20D1F00E94C43820E030E040E22E
:105A000051E40F948E0920E030E040EF52E40F940F
:105A10008F0929E838E848E85BE30F9478030F948E
:105A20006E0A633010F4062F01C00FEF8AE50E9462
:105A3000F738C82E811105C081E50E94F738D82EAD
:105A400001C0D12CA11001C010E0212F30E0B11015
:105A500002C090E001C09E2D290F311D213031057B
:105A600019F0E8E0FEE205C0C1101AC0D11018C05C
:105A7000F8CF84918F010F5F1F4F882321F00E9480
:105A80006439F801F6CFE4E4F9E084918F010F5F07
:105A90001F4F882309F46AC10E946439F801F5CFC9
:105AA000F7FE03C0E8E0FEE206C007FF17C0FACF2A
:105AB0000E946439F80184918F010F5F1F4F81119B
:105AC000F7CFE5E2F9E084918F010F5F1F4F882344
:105AD00009F44CC10E946439F801F5CF0E94C43822
